:1000000059C0000072C0000070C000006EC0000047
:100010006CC000006AC0000068C0000066C000003C
:1000200064C0000062C0000060C000005EC000004C
:100030005CC000005AC0000058C0000056C000005C
:1000400054C0000052C0000050C000004EC000006C
:100050004CC000004AC0000048C0000046C000007C
:1000600044C0000042C0000040C000003EC000008C
:100070003CC000003AC0000038C0000036C000009C
:1000800034C0000032C0000030C000002EC00000AC
:100090002CC000002AC0000028C0000026C00000BC
:1000A00024C0000022C0000020C000001EC00000CC
:1000B0001CC0000011241FBECFEFD8E0DEBFCDBFB3
:1000C00011E0A0E0B1E0E8E0F4E002C005900D929C
:1000D000A830B107D9F721E0A8E0B1E001C01D9236
:1000E000A631B207E1F7F1D08DC18ACF1092B900E5
:1000F00088E48093B800089594EA9093BC00ECEBF8
:10010000F0E090819923ECF79091B900987F9830B6
:1001100099F48093BB0084E88093BC00ECEBF0E0A2
:1001200080818823ECF78091B900887F883131F095
:10013000803231F083E0089580E0089581E00895F1
:1001400082E0089584E98093BC00ECEBF0E08081CC
:1001500084FDFDCF08958093BB0084E88093BC00AC
:10016000ECEBF0E080818823ECF78091B900887F88
:10017000883221F0803321F082E0089580E00895F4
:1001800081E0089584EC8093BC00ECEBF0E080818A
:100190008823ECF78091BB00089501979C0140E013
:1001A00050E060E472E48FE090E0D7D0832F99278D
:1001B0008093C5002093C400E1ECF0E08081886961
:1001C0008083E2ECF0E080818E6080830895E0EC33
:1001D000F0E0908195FFFDCF8093C6000895CF9306
:1001E000DF93EC018881882329F02196F0DF899143
:1001F0008111FCCFDF91CF9108952FEF82E597E039
:10020000215080409040E1F700C0000082E774DF99
:1002100080E8A1DF83E09FDF95DF82E76DDF81E883
:100220009ADF8BED98DF8EDF82E766DF8FE893DF62
:1002300081E091DF87CF089582E75EDF84E98BDF7D
:1002400081DF83E759DF9EDF90E09093090180937F
:10025000080198DF2091080130910901382B309373
:100260000901209308018EDF90E090930F018093A5
:100270000E0188DF20910E0130910F01382B309351
:100280000F0120930E017EDF90E090930D0180938B
:100290000C0178DF20910C0130910D01382B309347
:1002A0000D0120930C016EDF90E090930B01809381
:1002B0000A0168DF20910A0130910B01382B30933D
:1002C0000B0120930A013ECF089580E895E265DF97
:1002D0000DDF93DFB1DF4AE060E171E0809108015A
:1002E000909109015CD080E191E079DF80E091E0BC
:1002F00076DF4AE060E171E080910E0190910F019C
:100300004ED080E191E06BDF80E091E068DF4AE071
:1003100060E171E080910C0190910D0140D080E18D
:1003200091E05DDF80E091E05ADF4AE060E171E05A
:1003300080910A0190910B0132D080E191E04FDF72
:1003400083E091E04CDF2FEF83ED90E3215080407C
:100350009040E1F700C00000BDCFA1E21A2EAA1B19
:10036000BB1BFD010DC0AA1FBB1FEE1FFF1FA21765
:10037000B307E407F50720F0A21BB30BE40BF50B62
:10038000661F771F881F991F1A9469F760957095EB
:10039000809590959B01AC01BD01CF010895BB27CD
:1003A0004A3031F4992322F4BDE2909581959F4F14
:1003B00001C0BB27FB015527AA27880F991FAA1F39
:1003C000A41710F0A41B83955051B9F7A05DAA3370
:1003D00008F0A95DA193009779F7B111B19311923B
:1003E000CB0100C0DC01FC01672F71917723E1F79D
:1003F000329704C07C916D9370836291AE17BF07F2
:08040000C8F30895F894FFCF42
:0804080020200020200D0A0055
:00000001FF
